:020000040800F2
:10000000D819002091010008594C000875370008E4
:10001000554C0008F90400080D60000800000000BD
:100020000000000000000000000000007D5E0008ED
:1000300021050008000000005D4C0008815E0008FA
:10004000AB010008AB010008AB010008AB010008E0
:10005000AB010008AB010008AB010008AB010008D0
:10006000AB010008AB010008AB010008AB010008C0
:10007000AB010008FD04000809050008AB010008F9
:10008000AB01000815050008AB010008AB01000832
:10009000AB010008AB010008AB010008AB01000890
:1000A000AB010008AB010008AB010008AB01000880
:1000B000AB010008AB010008895E00088537000825
:1000C00079370008AB010008AB010008614C00085B
:1000D000AB01000801600008AB010008AB0100089B
:1000E000AB010008AB010008AB01000800F002F80A
:1000F00000F03EF80AA090E8000C82448344AAF184
:100100000107DA4501D100F033F8AFF2090EBAE881
:100110000F0013F0010F18BFFB1A43F0010318473B
:10012000B89E0000D89E0000103A24BF78C878C15D
:10013000FAD8520724BF30C830C144BF04680C60ED
:10014000704700000023002400250026103A28BF35
:1001500078C1FBD8520728BF30C148BF0B60704739
:100160001FB59DE8030000F0B3F81FBD10B510BD2A
:1001700000F040F91146FFF7F3FF05F0F3FF00F040
:100180005EF903B4FFF7F2FF03BC00F08FF9000043
:100190000948804709480047FEE7FEE7FEE7FEE71B
:1001A000FEE7FEE7FEE7FEE7FEE7FEE70448054957
:1001B000054A064B70470000855E0008ED00000808
:1001C000D8130020D8190020D8150020D8150020F9
:1001D00070B5064600F060F8056806F10B0020F0E7
:1001E0000704B4429CBF002070BD2B466A68BAB1B8
:1001F0001068A04210D304F1080188423CBF506847
:10020000586007D35168101941601168091B0160DB
:1002100058601460101D70BD13465268002AE7D163
:100220002146284600F040F80028DED170BD10B508
:10023000203AC0F00B80B1E81850A0E81850B1E89F
:100240001850A0E81850203ABFF4F5AF5FEA027CDE
:1002500024BFB1E81850A0E8185044BF18C918C00E
:10026000BDE810405FEA827C24BF51F8043B40F8AF
:10027000043B08BF7047D20728BF31F8023B48BF94
:1002800011F8012B28BF20F8023B48BF00F8012BD2
:100290007047704770477047004870472000002043
:1002A000704770477047704738B504460A460020CB
:1002B0006946AFF30080002808BF38BD02460099A8
:1002C000204600F075F8012038BD012000F08AB802
:1002D000F8B5AFF30080054600200C46102000BFA3
:1002E0000646A819A0420DD9324669460020AFF350
:1002F0000080070008BF00F075F80098A04218BF02
:100300000546C419FFF7C8FF05600746F01D20F039
:1003100007004619284600F00AF8B44208BFF8BDA5
:10032000A21B31463868BDE8F84000F041B8002112
:100330000160C0E9011070471020704770B5044695
:10034000051FFFF7A9FF0068002C14BF446870BDAB
:10035000002C18BFAC423CBF20466468F8D301684B
:100360000A18AA4218BF456003D12A6805461144FD
:10037000016028684119A1421CBF6C6070BD6168B2
:10038000696021680844286070BD10B500F00CF861
:10039000006810BD10B5044600F006F8046010BDFA
:1003A00000487047180000200048704718000020DF
:1003B000034640688C46002818BF88423CBF03466D
:1003C0004068F8D318681844884207D00CF103003D
:1003D00020F00700001D411A521A0146081D0A604C
:1003E000FFF7ACBF10B500F039F8BDE8104000F0E1
:1003F0002FB870477546FFF7D3FFAE460500694634
:10040000534620F00700854618B020B5FFF7CEFE12
:10041000BDE820404FF000064FF000074FF0000805
:100420004FF0000BAC46ACE8C009ACE8C009ACE842
:10043000C009ACE8C00921F007018D46704710B52E
:100440000446AFF300802046BDE81040FFF799BE98
:10045000002801D000F02AB87047000010B501282C
:1004600005D0002103A000F027F8012010BD09A14C
:10047000F8E7000053494752544D454D3A204F7517
:1004800074206F662068656170206D656D6F72798C
:10049000000000003A2048656170206D656D6F7244
:1004A0007920636F72727570746564000149182059
:1004B000ABBEFEE72600020070B505460C460A20DA
:1004C00000E06D1C00F011F835B128780028F8D153
:1004D00002E0641C00F009F814B120780028F8D17B
:1004E000BDE870400A20AFF3008008B569468DF87A
:1004F00000000320ABBE08BDFEE7000041F2102063
:10050000C2F2000000F092B841F25420C2F20000A2
:1005100000F08CB841F2CC10C2F2000000F086B8B6
:1005200070470000EFF3108072B600BFFEE70000D6
:10053000014690F82100022816D10868D1E90FC3BE
:10054000026822F00E020260026822F001020260DC
:10055000012000FA03F2CCF8042081F821000020E9
:10056000002281F8202070470420886301200022A7
:1005700081F820207047000080B590F821100229F2
:1005800024D10268116821F00E0111602F21136837
:10059000C4F202018A4240F20401C4F2020123F0D3
:1005A0000103136016DD3023C4F202039A421DD00A
:1005B0004423C4F202039A421CD05823C4F202031B
:1005C0009A421DD14FF4803322E000BF04218163A1
:1005D000012080BD0823C4F202039A420ED01C23DE
:1005E000C4F202039A420BD1102311E04FF480733E
:1005F0000EE000BF4FF480530AE000BF012307E084
:1006000001F1680C4FF08073624508BF4FF480130E
:100610000B60416B4FF48072028401B18847002067
:1006200080BD000090F821007047000010B5D0E9AF
:100630000FCE0168DCF800300A6823FA0EF35C077D
:100640002AD512F0040427D00A68920603D40A6857
:1006500022F004020A602F22C4F20202914240F208
:100660000402C4F2020259DD3023C4F202039942AB
:1006700070D04423C4F20203994271D05823C4F2CB
:100680000203994278D14FF480231360C16A002994
:1006900040F097806EE000BF9C0727D512F002045F
:1006A00024D00A68920606D40A6822F00A020A6078
:1006B000012280F821202F22C4F20202914240F24E
:1006C0000402C4F2020239DD3023C4F2020399426B
:1006D0005ED04423C4F2020399425DD05823C4F291
:1006E000020399425ED14FF4003363E01B0741D50A
:1006F00012F0080208BF10BD0A6822F00E020A605C
:10070000012101FA0EF2CCF804208163016B4FF451
:1007100080720029028454D12CE000BF0823C4F267
:100720000203994222D01C23C4F20203994223D12E
:1007300040231360C16A002943D11BE00823C4F29F
:10074000020399422CD01C23C4F20203994229D1FE
:1007500020232FE04FF480631360C16A89BB09E056
:100760004FF480431360C16A59BB03E00423136054
:10077000C16A31BB10BD00BF02F168044FF0806355
:10078000A14208BF4FF480031360C16AC9B9F1E701
:100790004FF400730EE000BF4FF400530AE000BFB7
:1007A000022307E002F168044FF00073A14208BF82
:1007B0004FF400131360816A0022002980F8202082
:1007C000D8D0BDE810400847002804BF012070477A
:1007D0002DE9F04101684FF6F872CBF6FD724CF648
:1007E000CD430A44CCF6CC43A2FB03236FF00307AE
:1007F00007EA93030027C4F2020700F1040E00F198
:100800001008C0E90F739EE8045098E870010B6867
:1008100043F6F077BB431A4342EA0C0242EA0E0267
:1008200022432A43324342EA08020A6000214FF47D
:10083000807281630284BDE8F04108467047000081
:10084000F0B590F820C0BCF1010F32D090F821C073
:100850004FF0010EBCF1010F80F820E026D14FF0DF
:10086000020C80F821C04FF0000CC0F838C0D0E96D
:1008700000C4C56AC66BDCF80070102C27F00107B5
:10088000CCF80070006C0EFA00F070600846CCF8EE
:10089000043004BF10460A46CCF80800CCF80C20FF
:1008A000DCF8000045B140F00E000DE0002180F8BA
:1008B00020100220F0BD00BF20F00400CCF80000A2
:1008C000DCF8000040F00A00CCF80000DCF8000082
:1008D00040F00100CCF800000020F0BDB0B50446A7
:1008E00000F028F9054640F20800C2F20000007846
:1008F000611C18BF044400BF00F01CF9401BA0425B
:10090000FAD3B0BD2DE9F04F82B041F20042C4F2FB
:1009100001020E680423904208BF0323002E0093B7
:1009200000F0F68040F20C4E4FF6FF7CC4F2010E50
:1009300000220124C1F2100C4FF0000A4FF0000910
:1009400043E000BF012502F00C040F27A7402BEA6B
:10095000070705FA04F43C4343F82640D1F804B0F5
:1009600040F20045C4F201055FEACB332B6854BF67
:1009700023EA080343EA08032B606B685FEA8B34C1
:1009800054BF23EA080343EA08036B605FEACB2401
:10099000AB6854BF23EA080343EA08035FEA8B24E9
:1009A000AB60DEF800304FF0010454BF23EA0803C7
:1009B00043EA0803CEF800300E680AF1010A36FA5D
:1009C0000AF302F1040200F0A38004FA0AF816EA1E
:1009D000080FF1D04B68634512DC122B56D8DFE8C4
:1009E00003F0350B454955555555555555555555F4
:1009F0005555554D510000BFD1F80C9046E000BF51
:100A00004FF6FF77C1F22107BB420FDC0027C1F28E
:100A10001107BB421AD00027C1F21207BB4215D002
:100A20000027C1F22107BB4210D02FE00027C1F2FE
:100A30002207BB420AD00027C1F23107BB4205D0D2
:100A40000027C1F23207BB4220D100BF8B684BB1F7
:100A5000012B14BFC0F81480C0F810804FF00809B3
:100A600014E000BF4FF0040910E000BFCB6803F1B1
:100A700008090BE04FF0000908E000BFCB6803F164
:100A8000040903E0CB6803F10C0900BF13460546D7
:100A9000BAF1080F24BF203B04352E680F279F4072
:100AA000BE4309FA03F333432B60CB79DB067FF5B2
:100AB00083AF41F21804C4F2020423684FEA9A0695
:100AC00043F001032360236840F6000403F00103B0
:100AD0000193019B40F20043C4F20103A3F57E732E
:100AE00053F826B0C4F20104A0420FD040F60044EF
:100AF000C4F20104A0423FF425AF41F20004C4F265
:100B00000104009DA04208BF02251CE700251AE74A
:100B100002B0BDE8F08F0000C26802EA0103914311
:100B200041EA034101617047002A08BF09040161DD
:100B30007047000041F2D430C2F2000000687047F4
:100B40007047000070470000F0B581B004460068AF
:100B500000254769426894F83E1002F48076FA0551
:100B600008D53EB16FF4807242610268012542F4FB
:100B700000420260BA0505D5002E1EBF02356FF493
:100B8000007242617A0516D5AEB1628D94F83D309F
:100B9000D4F830C0202908BF002A23D06FF4806227
:100BA000402905F10405426101D0102903D10168F3
:100BB00041F400710160380506D52EB12068083572
:100BC0006FF40061416100E055B1206C40EA05011D
:100BD0002046216401B0BDE8F04002F071BE00BFC4
:100BE00001B0F0BD03F0F701212909D0282B08BF7F
:100BF000BCF1210F04D06FF4806141610435DAE764
:100C000094F83D10E26AB2F1080318BF0123203ABC
:100C100018BF0122134208BF28291DD0212935D130
:100C20000021CFF6FF71E16221212163202184F8A8
:100C30003D10002184F83E10416821F4E0614160DC
:100C40006FF480614161016821F480610160204698
:100C500001F024F8AFE700BF0021CFF6FF71E16299
:100C6000416821F4E06141606FF480614161016895
:100C700021F48061016000202021206384F83D1070
:100C800084F83E00204600F0F3FB94E76FF48061A7
:100C9000416190E7F0B581B0076804467868E26A80
:100CA00094F83E3094F83DE0402B01D0102B27D132
:100CB000BE697D69E90751D1B2F12A4F00F0C082C7
:100CC000B2F52A0F00F0BC8200F400724FF0010C64
:100CD00029078CEA522C45D5002A43D0606B616C01
:100CE000C9B2396118B1806A002840F02281A06B36
:100CF000002800F0A582806A002840F01A819FE257
:100D0000216C00F4007300290CBFBE6900267D69C8
:100D1000A90753D5002B51D0206C002818BFBE69FD
:100D200094F83D0000F02800282840F0938078686F
:100D3000002320F480607860012020EA96013006CC
:100D40004FF0180058BF0C20225A204684F83C303F
:100D500001B0BDE8F040FFF7F5BE00BF810557D4F4
:100D60004FF0010CA90759D5BCF1000F56D194F8EA
:100D70003E30E06A226B94F83D10222940F0E0807A
:100D8000216D002908BF402B00F0DA80216D002979
:100D900040F034812169B1F5404F40F02F810020AF
:100DA000009078690090B86900900098386840F425
:100DB00080703860206D013095E200BFE90655D59E
:100DC000002B53D094F83D50786820F4E0607860B0
:100DD0000020009078690090386840F00100386089
:100DE0000098386820F4806038607868000540F129
:100DF000428105F0F7002646222840F01B8156F874
:100E0000380F0168496826F80E1C36F80E1C19E1E7
:100E1000E06AB0F52A0F5DD1012060E079687207C1
:100E200001F4006100F19680002940F00982690612
:100E300005F0040140F1B08110F4806000F0AC8155
:100E4000002940F0A981204601B0BDE8F04002F041
:100E500071BE00BF0020009079690091B9690091CE
:100E6000009984F83C0001B0F0BD00BF0EF0F7011E
:100E7000212940F08580290605F0040240F14C81CB
:100E800010F4806000F04881002A40F0458194F819
:100E90003D00618D002900F0D381616A11F8012BBA
:100EA0003A616162618D01396185618D002908BFF8
:100EB000292840F0C5817868282120F48060786076
:100EC00021202063204684F83D1001B0BDE8F040A9
:100ED00000F0E4BEE06AB0F12A4F01D10820E062E0
:100EE00094F83E0040280BD1206D616C002801F081
:100EF000FE0018BF40F00100386101B0F0BD00BF36
:100F00002069B0F5804F69D194F83D00616C2128CB
:100F100001F0FE0118BF01313961606B08B1806AD0
:100F200038B9A06B002800F08B81806A002800F09F
:100F30008781786840F40060786001B0F0BD00BF40
:100F40000020009078690090B8690090009801B086
:100F5000F0BD00BF002940F07381290605F00401AF
:100F600040F1268110F4806000F02281002940F0D9
:100F70001F81204601B0BDE8F04002F0B9BE00BFBD
:100F8000690605F0040240F1DB8010F4806000F097
:100F9000D780002A40F0D48094F83D00618D00296C
:100FA00000F04E813969626A1170616A01316162D3
:100FB000618D01396185618D002908BF2A2840F0C3
:100FC0003F812068416821F480614160222028210E
:100FD0002063204684F83D10D9E000BF206D002832
:100FE00000F0C080206D012840F02A81606C06214D
:100FF00001EAD010F130386101B0F0BD618D61B10E
:10100000618D012940F0E480202818BF082840F0B5
:101010001981386820F48060386000200090786979
:101020000090B86900900098386840F4007038600B
:1010300058E100BF56F8340F0168496826F80A1CC9
:1010400036F80A1C19B1216C41F004012164796859
:1010500021F400617960FFF7E5FA01280BD03068D0
:1010600043F29D71C0F600014163FFF785FA10B1AC
:101070003068416B8847608D60B1206841694907DD
:1010800030D4416949063AD4608D18B1206C40F0E3
:1010900004002064206C28B1204601B0BDE8F04077
:1010A00002F00EBC2A2D07D100202063282084F8EE
:1010B0003D00204600F0F0FD94F83D00282859D16D
:1010C0000020CFF6FF70E06200212020216384F829
:1010D0003D00204684F83E1001B0BDE8F04000F02D
:1010E000C7B900BF0069616A0870616A2068013190
:1010F0006162618D0139618541694906C4D5006924
:10110000616A0870606A01306062608D01386085D4
:10111000608D0028BAD1BDE7002A18BF002B00F06F
:101120008F80608D002800F08B80606A10F8011BB2
:1011300039616062608D0138608501B0F0BD00BF2B
:10114000002A18BF002B00F07B80608D002877D02C
:101150003869616A0870606A01306062608D0138C8
:1011600060856DE0606C062101EAD010F0303861D6
:1011700001B0F0BD206B222818BF222D60D10021C4
:101180002020216384F83D00204684F83E1001B001
:10119000BDE8F04000F080BDB1FA81F0400950EAAE
:1011A0000C004DD1204601B0BDE8F04002F04EBC2D
:1011B000B1FA81F0400950EA0C0041D1BEF1210F93
:1011C00036D1204601B0BDE8F04002F04FBD00BF6F
:1011D000618D022914D1102858D801211422814090
:1011E000C0F20102114251D0396841F48061396086
:1011F0000021009179690091B9690091009954E04A
:10120000396841F4806139607968090563D5421E07
:101210001F2A5DD80121914048F28102C8F20002E4
:10122000114255D0786840F48050786053E000BF98
:10123000402B05D1204601B0BDE8F04002F0B2BD20
:1012400001B0F0BD10F5803F0CD1386820F480600B
:101250003860786800057FF5E0AE386820F480607B
:10126000386038E0122A02D101287FF4D2AE10286B
:10127000F3D8012101FA00F01421C0F20101084263
:10128000EBD0386840F48060386024E0396841F47D
:10129000006139600021009179690091B96900917C
:1012A0000099396821F4806139607968090519D598
:1012B000421E1F2A1AD80121914048F28102C8F229
:1012C0000002114212D0786840F48050786009E042
:1012D00010F5803FA6D00020009078690090B86992
:1012E000009000980020206501B0F0BD10F5803F0F
:1012F000E9D0F7E77047000070B5B8B3044690F83E
:101300003D0028B9002084F83C00204600F05CFC39
:10131000242084F83D002068016821F0010101606B
:10132000016841F400410160016821F4004101605D
:1013300000F04AFE48F28041C0F21E0140F6001360
:10134000D4F804E088424FF00001C0F23D0348F2B7
:10135000A16C4FF0000238BF01219842C0F2010C8D
:1013600038BF0122E64538BF0A460AB1012070BDE8
:101370004DF68361C4F21B31A0FB01122168950C6C
:101380004B684FF4967623F03F0343EA924375434C
:1013900044F6D3564B60C1F262060B6AA5FB0656B3
:1013A000B50923F03F03E64538BF950C6A1C1A4384
:1013B0000A62CA6948F2A0664CF6FF73C0F20106E1
:1013C000B64522EA03020BD801384FEA4E03B0FBC0
:1013D000F3F001306FF31F30042898BF04201EE0A3
:1013E000A368013863B119230EFB03F3B0FBF3F0DC
:1013F00001306FF31F3078B100F5804008E000BF86
:101400000EEB4E03B0FBF3F001306FF31F3028B149
:1014100000F5004003E000BF012000E00120104380
:10142000C8610868D4E9072320F0C00010431843BE
:101430000860886848F2FF3204F10C0690434CCEF5
:1014400018431043A5698860C86820F0FF00304346
:101450002843C860086840F001000860002020218F
:10146000206484F83D10206384F83E0070BD0000C5
:101470007047000070470000704700007047000090
:10148000704700002DE9F04F85B0044600201E464D
:1014900017460D460490FFF74DFB94F83D102029A8
:1014A00023D1804620688169890719D5FFF742FB5F
:1014B000A0EB08001928F5D900202021206384F82A
:1014C0003D1084F83E00206C04F13C0940F02000FF
:1014D00020640220002189F8001005B0BDE8F08FDB
:1014E000A14619F83C1F012904D1022005B0BDE82E
:1014F000F08F00BF012289F800200368DDE90F1A90
:101500000E9ADB0703D1036843F00103036003680D
:1015100023F400630360222084F83D00402084F817
:101520003E000020206462626185608D294620852E
:101530000020CFF6FF70E06220463A463346CDF8F1
:1015400000A0CDF8048002F087FC18B1012005B09E
:10155000BDE8F08F208D022810D0012824D000286B
:1015600038D100200390206841690391816903917B
:101570000399016841F40071016037E02068016857
:1015800041F400610160EFF3108072B60020039017
:10159000206841690391816903910399016821F4ED
:1015A0008061016062B621E02068016821F48061F9
:1015B0000160EFF3108072B600200390206841694B
:1015C0000391816903910399016841F400710160FD
:1015D00062B60BE02068016841F48061016000217F
:1015E000039141690391806903900398208D00283D
:1015F00000F0238140F2100B4BF289570AF10105EC
:10160000C2F2000BC1F2F847232680B2032819D892
:10161000022845D001286FD1BAF1000F00F0FA80FE
:101620002068014651F8142F520600F1F78008682F
:10163000C00600F12F81FFF77DFAA0EB08005045AE
:10164000EED91CE1BAF1000F12D000BF20680146AC
:1016500051F8142F520610D40868C00600F11A8100
:10166000FFF768FAA0EB08005045EFD907E100BF8B
:1016700020684169490640F1FB800069616A087091
:10168000606A2268411C208D616201382085638D6B
:10169000013B638553695B0740F1CC801069BFE073
:1016A00020684169490711D4002D00F09380BAF1F8
:1016B000000F00F0E280FFF73DFAA0EB0800504574
:1016C00000F2DD80206840694007F4D5EFF3108018
:1016D00072B62068616A026842F4007202600069B2
:1016E0000870606A218D01306062481E2085608D1F
:1016F0000138608562B668E020684169490710D406
:10170000002D77D0BAF1000F00F0B780FFF712FA82
:10171000A0EB0800504500F2B280206841694907FB
:10172000F4D5016821F480610160EFF3108072B696
:101730002068616A00690870606A218D0130013992
:1017400060622185618D01396185DBF80010C9086F
:10175000A1FB0712110A7143049104990139049104
:101760000499002976D021684A6952071DD404994A
:1017700001390491049900296CD021684A69520703
:1017800013D40499013904910499002962D0216885
:101790004A69520709D4049901390491049900292E
:1017A00058D021684A695207D7D50A6842F40072B6
:1017B0000A6009690170606A218D01306062481E0B
:1017C0002085608D0138608562B62068616A006995
:1017D00026E000BF416949073FF578AF41694907F5
:1017E0005CBF41695FEA41713FF570AF41694907EC
:1017F000F0D56BE74169490793D4416949075CBF5C
:1018000041695FEA41713FF58CAF41694907F1D504
:1018100087E700BF20684169490629D50069616AE8
:101820000870606A218D01306062481E2085618DDC
:101830000139618501047FF4E8AE202084F83D0081
:10184000002084F83E00002189F8001005B0BDE8B2
:10185000F08F00BF00202021206384F83D1084F821
:101860003E00206C40F02000206462B61EE000BF05
:1018700050F8141FC90601460CD4FFF75BF900208D
:101880002021206384F83D1084F83E00206C40F055
:1018900020000AE06FF01000086000202021206383
:1018A00084F83D1084F83E00206C20640120002163
:1018B00089F8001005B0BDE8F08F000070B581B068
:1018C0000025009590F83D50202D3FD140F21005A5
:1018D000C2F200052D684BF28954ED08C1F2F844BC
:1018E000A5FB0454DDE9056E250A1924654300951E
:1018F000009D013D0095009D75B30568AC69A40786
:101900001AD5009D013D0095009D2DB30568AC6979
:10191000A40711D5009D013D0095009DE5B1056826
:10192000AC69A40708D5009D013D0095009D9DB1BF
:101930000568AC69A407DBD490F83C40012C1DD1AC
:101940004FF0020C604601B070BD00BF4FF0020CBA
:10195000604601B070BD00BF00212022016380F805
:101960003D2080F83E10026C4FF0010C42F0200246
:10197000026480F83C10604601B070BD2C68E4073A
:1019800003D12C6844F001042C602C684FF0000C4B
:1019900024F400642C60222480F83D40402480F828
:1019A0003E40C0F840C04662A0F82AE0468D0024C0
:1019B000CFF6FF740685C46241648264C364C0F8D4
:1019C00050C02968002E41F480612960296841F4E3
:1019D0008071296080F83CC0B4D068684FF0000C7A
:1019E00040F4E0606860604601B070BD2DE9F043EE
:1019F00083B0994616460F460446FFF79BF894F8C5
:101A00003D1020291CD1054620688169890713D51E
:101A1000FFF790F8401B1928F6D9002020212063F9
:101A200084F83D1084F83E00216C41F020012164CF
:101A300084F83C0004E000BF94F83C10012903D175
:101A4000022003B0BDE8F083012284F83C20036843
:101A5000DDE90B180A9ADB0703D1036843F00103A1
:101A60000360036823F400630360212084F83D00D1
:101A7000402084F83E000020206462626185608D11
:101A8000394620850020CFF6FF70E06220463246BE
:101A90004B46CDF80080019502F06EFB20B101208D
:101AA00003B0BDE8F08300BF208D002850D020682F
:101AB00008F10106014651F8142F12062CD49EB1EC
:101AC000B8F1000F5AD000BF086840055ED4FFF798
:101AD00031F8401B404556D82068014651F8142F74
:101AE0001206F1D518E000BF0A6852054ED40A6804
:101AF000120611D40A68520548D40A6812060BD49B
:101B00000A68520542D40A68120605D40A685205CA
:101B10003CD40A681206E7D5626A114611F8013B07
:101B20000361238D6162591E2185678D013F6785A1
:101B300047697F070AD50F0408D051780161911CCD
:101B40006162991E2185628D013A62850904B1D1D5
:101B5000204641462A4602F049FC38BB206801680D
:101B600041F400710160202084F83D00002084F8D9
:101B70003E0084F83C0003B0BDE8F08308684005EF
:101B800004D4FEF7D7FF202004E000BF6FF480608C
:101B90000860042000212022216384F83D2084F87D
:101BA0003E10226C1043206484F83C10206C042802
:101BB0007FF475AF2068016841F400710160012075
:101BC00003B0BDE8F083000070B586B0044600683D
:101BD00045F20041C4F2000100268842049601D07B
:101BE00006B070BD41F21805C4F20205286802A9CA
:101BF00040F008002860286800F008000190019873
:101C00004FF440700290122003900320059040F69C
:101C10000040C4F20100FEF775FE0420C4F201008A
:101C200001684FF4405241F0E06141F0020101606F
:101C30006868802140F400106860686841F2CC1543
:101C400000F40010019001988020C2F20005C4F257
:101C50000200C5E900062846C5E90261C5E9046637
:101C6000C5E90662FEF7B0FD002818BFFEF75AFC72
:101C70001F2000210022A5636C6200F089F81F205C
:101C800000F076F820200021002200F081F82020CA
:101C900000F06EF806B070BD70470000704700009D
:101CA00040F2080041F2D431C2F20000C2F2000159
:101CB00000780A68104408607047000080B542F25E
:101CC0000000C4F20200016841F01001016003202D
:101CD00000F08AF80F2000F005F800F027F8002047
:101CE00080BD000070B540F20806C2F2000640F266
:101CF00010013278C2F200014FF47A730968B3FB25
:101D0000F2F20446B1FBF2F1084600F019FE0F2C86
:101D10004FF0010508D838B94FF0FF3021460022B6
:101D2000002500F035F87460284670BD82B041F29D
:101D30001800C4F202000168022241F001010160B2
:101D4000016801F0010101910199416841F0805160
:101D50004160406800F08050009000980420C4F278
:101D60000100016862F31A61016002B0704700006F
:101D7000002848BF704700F01F01012202FA01F15C
:101D80004EF200124009CEF2000242F820107047D5
:101D900010B54EF60C5CCEF2000CDCF80030C3F34C
:101DA000022E8EF00704042C28BF0424BEF1030386
:101DB0004FF0FF3E0EFA04F438BF0023A1439940D0
:101DC0000EFA03F39A43114300F00F02043A6244FF
:101DD00009010C3200F16043B0F1FF3FC8BF03F5C9
:101DE0006442117010BD00004EF60C51CEF200019D
:101DF0000A684FF6FF031A4060F30A2242F080603F
:101E000040F0FD70086070472DE9F04381B0002874
:101E100000F0858042F20008C4F202080446D8F8B7
:101E200000000D4600F0070088420CD2D8F80000F0
:101E300020F007002843C8F80000D8F8000000F0A0
:101E40000700A8426BD1206841F204098107C4F25F
:101E5000020917D5410705D5D9F8001041F4E06112
:101E6000C9F80010010705D5D9F8001041F46051F8
:101E7000C9F80010D9F80010A26821F0F001114350
:101E8000C9F80010C00741D1D8F8000000F00700E1
:101E9000A8420CD9D8F8000020F007002843C8F861
:101EA0000000D8F8000000F00700A84237D12068F1
:101EB000410707D5D9F80010E26821F4E061114329
:101EC000C9F80010000708D5D9F80000216920F4EE
:101ED000605040EAC100C9F80000D9F8002002F0C3
:101EE0000C00082841F20020C0F27A0050D149F6D7
:101EF0005273C2F38341C0F60003595CD2033BD452
:101F000040F60010C0F23D00484341E060680228FE
:101F10000AD001282AD159F8041C890308D40120C9
:101F200001B0BDE8F08300BF59F8041C8901F6D563
:101F3000D9F8001021F003010843C9F80000FEF7AA
:101F4000F9FD064641F28837D9F80000616800F0D3
:101F50000C00B0EB810F97D0FEF7ECFD801BB84270
:101F6000F2D9032001B0BDE8F08300BF59F8041C8A
:101F70008907D4D5DCE700BFD9F8002049F63873CB
:101F8000C2F34042C0F600039A5C4843B0FBF2F053
:101F9000D9F8001049F63A72C1F30311C0F60002F5
:101FA000515C40F2100220FA01F140F20C00C2F242
:101FB00000000068C2F200021160FFF793FE0020EB
:101FC00001B0BDE8F083000040F2100041F20401CE
:101FD000C2F20000C4F202010068096849F64A72C0
:101FE000C1F30221C0F60002515CC84070470000F6
:101FF00040F2100041F20401C2F20000C4F20201FA
:102000000068096849F64A72C1F3C221C0F60002AD
:10201000515CC840704700002DE9F04182B00028B3
:1020200068D00446007841F20006C007C4F20206F8
:1020300025D0706800F00C0004281BD0706800F0F8
:102040000C00082802D17068C00313D4606800280F
:1020500000F06881B0F5A02F00F07C81B0F5803FE2
:1020600000F07C81306820F480303060306820F4EB
:10207000802076E13068800301D56068D0B3207895
:10208000800718D5706810F00C0F07D0706800F04A
:102090000C0008286ED17068C0036BD430688007CC
:1020A00002D52069012825D13068616920F0F80047
:1020B00040EAC1003060207800071FD42078400734
:1020C00032D4E56995B1706800F00C00082840F042
:1020D0008F80012D0ED07068216A00F480328A4210
:1020E00008D1616A00F47010884203D1002002B068
:1020F000BDE8F081012002B0BDE8F081A0690028B0
:1021000062D00020C4F242200121C0F88014FEF702
:1021100011FD0546706A800700F18C80FEF70AFD0C
:10212000401B0228F6D92AE1F06910F0805808D146
:10213000F06940F08050F061F06900F0805000904C
:10214000009847F20007C4F200073868C00529D498
:10215000386840F480703860FEF7ECFC054600BF3C
:102160003868C0051ED4FEF7E5FC401B6428F7D98B
:1021700005E100BF2069002840F20000C4F24220BF
:1021800000F0828001210160FEF7D4FC054600BF0B
:10219000306880073FF588AFFEF7CCFC401B022873
:1021A000F6D9ECE0E068002800F08080052800F017
:1021B0009780012800F09880306A20F0010030629A
:1021C000306A20F0040092E00020C4F24220002196
:1021D000C0F88014FEF7AEFC054600BF706A8007A9
:1021E0007FF56CAFFEF7A6FC401B0228F6D9C6E0CF
:1021F0000027C4F2422700203866FEF79BFC022D20
:1022000005460BD13068800140F1BE80FEF792FC9C
:10221000401B02284FF00300F4D968E730688001C2
:102220007FF564AFFEF786FC401B02284FF00300E9
:10223000F4D95CE740F21000C2F20000006844F6F6
:10224000D351C1F26201A0FB0101480A019000BF15
:1022500000BF0198411E002801913FF42FAF00BF3D
:102260000198411E002801913FF428AF00BF01985A
:10227000411E002801913FF421AF00BF0198411E8B
:1022800000280191E4D119E700210160FEF752FC1A
:10229000054600BF306880077FF50DAFFEF74AFCAA
:1022A000401B02284FF00300F4D920E7306A20F0E9
:1022B00001003062306A20F004003062FEF73AFC20
:1022C000054641F2883700BF306A800720D5FEF707
:1022D00031FC401BB8424FF00300F5D907E700BFBF
:1022E000306A40F004003062306A40F00100306231
:1022F000FEF720FC054641F2883700BF306A8007B0
:1023000006D4FEF717FC401BB842F7D937E000BFF0
:10231000B8F1000F7FF4D5AEF06920F08050F06185
:10232000CFE600BF306820F480303060306820F4A1
:1023300080203060FEF7FEFB054600BF306880035A
:102340007FF59DAEFEF7F6FB401B64284FF00300BF
:10235000F4D9CCE6306840F480203060306840F436
:1023600080303060FEF7E6FB054600BF3068800332
:102370003FF585AEFEF7DEFB401B6428F6D903204F
:1023800002B0BDE8F08100BF206AB0F5803F05D102
:102390007168A26821F40031114371607168626A4A
:1023A00021F4741110430843706001203866FEF771
:1023B000C1FB0446306880013FF598AEFEF7BAFBDA
:1023C000001B02284FF00300F4D990E6014640F6C6
:1023D000004000BFC4F20100096800F510529142AC
:1023E00018BF704740F2000CC2F2000C012301211B
:1023F00001228CF80030FEF797BB0000B0B584B026
:10240000044600684168826812F0400305D112F06A
:10241000010518BF11F0400512D1950708D511F03C
:10242000800505D0616C204604B0BDE8B040084787
:1024300012F0600F18BF11F0200507D104B0B0BD35
:10244000216C204604B0BDE8B0400847BBB194F809
:102450005130032B08D100210291C168029180689C
:102460000290029804B0B0BD636D43F0040363654D
:1024700000230393C368039383680393039B12F0C1
:1024800020020CD0626D42F00102626500220192CE
:1024900082680192026822F040020260019A626D35
:1024A000002ACBD04268890722F0E00242604FF058
:1024B000010284F851201FD0416844F66D4521F097
:1024C00003014160E06CC0F6000538B14563FEF7DA
:1024D00053F818B1606D40F040006065A06C0028B2
:1024E000ACD04563FEF748F80028A7D0606D40F0F7
:1024F0004000606504B0B0BD204604B0BDE8B04007
:10250000FFF764BF70B538B10446406A30B10020AF
:10251000206104F1140007E0012070BD6068B0F58F
:10252000827F03D004F11C00002101600026A66216
:1025300094F8510020B9204684F8506000F038F833
:10254000022084F8510094E8071001F482710368B6
:1025500002F4044223F040030360236911440CF4A5
:102560000062114403F002026369114403F00102A6
:10257000A369E569114403F40072114405F03802BF
:10258000256A114405F08002A56A114305F4005242
:1025900011430160042101EA13414160C16921F442
:1025A0000061C1610120666584F85100304670BD4C
:1025B00070B586B0044640F60000C4F20100216800
:1025C00000F5205200269142049601D006B070BD5D
:1025D00041F21801C4F202010A6842F480520A6012
:1025E0000A6802F480520192019A0A6842F00402D9
:1025F0000A60096801F0040101910199A02102918A
:10260000022103910321059102A9FEF77BF941F212
:1026100010253020C2F20005C4F2020010218022F1
:1026200085E843002846C5E90326C5E90566EE614D
:10263000FEF7CAF8002818BFFDF774FF2320002119
:102640000022A5646C62FFF7A3FB2320FFF790FB39
:1026500006B070BD2DE9F04381B0044690F85000FB
:10266000012803D1022001B0BDE8F0834FF0010939
:102670001D4616460F4684F85090FEF75BFA94F814
:102680005110012972D18046002F4FF0010018BF70
:10269000002E00F0C2800320002184F85100616503
:1026A0002763A686E686A163A187E187A0682164E7
:1026B000B0F5004F2068616407D1016821F0400146
:1026C0000160016841F4804101600168490603D45A
:1026D000016841F0400101606168731EE268B1FA6F
:1026E00081F1B3FA83F349095B09B2F5006F41EA5E
:1026F00003013DD131B137F8021BC1602763E18E80
:102700000139E186E18E00296CD0691C1BD000BF25
:102710008168890706D4FEF70DFAA0EB0800A842ED
:1027200008D348E0216B31F8022BC2602163E08EB0
:102730000138E086E08E002854D02068816889073F
:10274000E9D5EFE720688168890703D4FEF7F2F93D
:1027500008E000BF216B31F8022BC2602163E08EDC
:102760000138E086E08E0028ECD13BE0022054E006
:1027700039B139780173206B01302063E08E013864
:10278000E086E08E70B3681C0BD11BE0216B0978EA
:102790000173206B01302063E08E0138E086E08E0B
:1027A00000B3206881688907F0D4FEF7C3F9A0EB75
:1027B0000800A842F3D303202FE000BFFEF7BAF9C8
:1027C000E08E78B1206881688907F7D5216B097898
:1027D0000173206B01302063E08E0138E086E08ECB
:1027E0000028EFD1204680212A46434602F098FA7D
:1027F00028B1606D40F02000606520206065A06811
:1028000038B9002000902068C1680091806800906D
:102810000098606D002818BF0120002184F85190B5
:1028200084F8501001B0BDE8F0830000B0B5044654
:1028300090F85000012804BF0220B0BD012084F8A8
:10284000500094F8510001280AD100294FF00100EE
:1028500018BF002A0AD1002184F85010B0BD00BF73
:102860000220002184F85010B0BD00BF03200023D7
:1028700084F8510063652163A286E286A363C4E9FC
:102880001033A387E387A0682268B0F5004F07D113
:10289000106820F040001060106840F48040106024
:1028A000A06C44F6994C44F6A14E44F67945C0F626
:1028B000000CC0F6000EC0F60005C0E90AECC0E945
:1028C0000C53E38E0C32FDF7BBFF58B1606D40F046
:1028D00010006065012084F85100002184F8501038
:1028E000B0BD00BF20680168490603D4016841F00B
:1028F00040010160416841F020014160416841F0C0
:10290000020141600020002184F85010B0BD000099
:10291000014640F60040C4F20100096800F510527B
:10292000914218BF704740F2000CC2F2000C012324
:10293000012101228CF80030FEF7F6B87047000044
:10294000411E0020B0EB116F1CBF012070474EF2FA
:102950001002CEF2000251604EF62351CEF2000179
:10296000F0230B70072190601160704770470000E2
:102970007047000010B590F83C20012A4FF0020289
:1029800033D080F83D200268D2F804E0D2F808C0C5
:102990000C682EF07003234340F2FF74C4F200046D
:1029A000A24253600ADCB2F1804F13D040F20043E0
:1029B000C4F200039A420DD011E000BF42F600437A
:1029C000C4F201039A4205D040F60003C4F20003AA
:1029D0009A4204D149682CF0800319439160012187
:1029E000002280F83D1080F83C20104610BD000009
:1029F000002804BF0120704710B5044690F83D0040
:102A000028B9002084F83C00204600F067F8022036
:102A100084F83D00206840F2FF730268C4F20003AE
:102A200042F6004C9842C4F2010C15DCB0F1804F24
:102A30001AD040F20041C4F20001884214D09842FA
:102A400018DCB0F1804F1DD040F20041C4F200010B
:102A5000884217D01AE000BF604505D040F600015B
:102A6000C4F200018842EAD1A16822F070020A4350
:102A70009842E6DD604505D040F60001C4F2000151
:102A8000884203D1216922F440720A43A36922F0EB
:102A90008001D4F804E0E268194360450160C26235
:102AA000C0F828E002D16169CCF830100121416101
:102AB000002084F8461084F83E1084F83F1084F813
:102AC000401084F8411084F8421084F8431084F8D0
:102AD000441084F8451084F83D1010BD80B582B0D4
:102AE000006840F60001C4F20001884214D040F2B0
:102AF0000041C4F2000188420CD141F21C00C4F232
:102B00000200016841F002010160006800F002006B
:102B10000190019802B080BD41F21C00C4F2020095
:102B20000168002241F00401016000680F2100F0FB
:102B30000400009000981E20FFF72AF91E2002B022
:102B4000BDE88040FFF714B990F83D1001291CBF83
:102B500001207047022180F83D10006840F2FF72AA
:102B6000C168C4F20002904241F00101C16009DC79
:102B7000B0F1804F12D040F20041C4F2000188420F
:102B80000CD012E042F60041C4F20101884205D0A7
:102B900040F60001C4F20001884206D1816801F0CC
:102BA0000701062904BF00207047016841F00101B8
:102BB000016000207047000080B590F83C20012A99
:102BC0004FF0020200F0BF8080F83D20D0F800C036
:102BD0004FF67772DCF8083023EA0202CCF80820BE
:102BE0000B683F2B1CDD5F2B20DD602B50D0B3F535
:102BF000005F6DD0702B40F0A080D1E901E3C9687F
:102C0000DCF8082043EA0E0322F47F4243EA012164
:102C10001143CCF80810DCF8081041F077018AE085
:102C20001F2B29DC63B3102B2AD086E0402B63D006
:102C3000502B40F08280D1F804E0C968DCF82030E5
:102C4000DCF8202022F00102CCF82020DCF818204B
:102C500022F0F00242EA011123F00A0242EA0E02D7
:102C6000CCF81810CCF82020DCF8081041F05701FF
:102C700021F020015FE000BF202B01D0302B5CD180
:102C8000DCF8081021F07001194341F0070152E00F
:102C9000D1F804E0C968DCF8203023F01003CCF848
:102CA0002030DCF81830DCF8202023F4704322F0C8
:102CB000A00243EA013142EA0E12CCF81810CCF817
:102CC0002020DCF8081041F0670121F0100132E00B
:102CD000D1E901E3C968DCF8082043EA0E0322F4D5
:102CE0007F4243EA01211143CCF80810DCF80810B8
:102CF00041F480411FE000BFD1F804E0C968DCF86E
:102D00002030DCF8202022F00102CCF82020DCF872
:102D1000182022F0F00242EA011123F00A0242EAEE
:102D20000E02CCF81810CCF82020DCF8081041F086
:102D3000470121F03001CCF808100121002280F871
:102D40003D1080F83C20104680BD00007047000018
:102D500010B5016804460869800744BFC8685FEA87
:102D6000807039D40869400744BFC8685FEA407082
:102D70003ED40869000744BFC8685FEA007045D4C4
:102D80000869C00644BFC8685FEAC0604AD40869E1
:102D9000C0071CBFC8685FEAC07051D1086900064F
:102DA00044BFC8685FEA006052D40869400644BF67
:102DB000C8685FEA406053D40869800646BFC868A7
:102DC0005FEA806010BD6FF0200220460A61BDE816
:102DD0001040FFF7CDBD00BF6FF002000861012079
:102DE00020778869800743D02046FFF7AFFF45E092
:102DF0006FF00400086102202077886910F4407F9A
:102E000040D02046FFF7A2FF42E000BF6FF008006D
:102E1000086104202077C86980073DD02046FFF76D
:102E200095FF3FE06FF01000086108202077C86927
:102E300010F4407F3AD02046FFF788FF3CE000BF07
:102E40006FF001000861204600F046FA2168A5E70E
:102E50006FF0800008612046FFF788FD2168A4E735
:102E60006FF040000861204600F038FA2168A3E7BF
:102E7000204600F04BF8204600F0BCF92168002005
:102E800020776FE7204600F041F8204600F0B2F9C5
:102E90002168002020776CE7204600F037F82046B4
:102EA00000F0A8F921680020207769E7204600F0AB
:102EB0002DF8204600F09EF921680020207766E773
:102EC00080B586B040F200410068C4F200010022E3
:102ED0008842049202D006B080BD00BF41F21800C3
:102EE000C4F20200026842F008020260006800F0CA
:102EF0000800019001980220CDE90200059001F53B
:102F0000843002A9FDF7FEFC06B080BD70470000CA
:102F10002DE9F04390F83C30012B04BF0220BDE8BE
:102F2000F0834FEAB202032A00F2E580DFE802F004
:102F3000023A76B0036842F600461A6AC4F2010605
:102F400022F001021A621D6A1A465C6852F818CF14
:102F5000B3428E68D1F800E025F0020545EA060587
:102F60000CD1CE68D1E9057824F4407425F00C0525
:102F700026F004063C43354344EA08042CF073076A
:102F800047EA0E075C609F614F6809695F631D62D5
:102F90009F6947F008079F619F6927F004079F61B9
:102FA000A6E000BF036842F600461A6AC4F20106B2
:102FB00022F010021A621D6A1A46D3F804C052F8B1
:102FC000184FB3428E68D1F800E025F0200545EA9D
:102FD00006150FD1CE68D1E905986FF0400707EAD2
:102FE00006162CF4406725F0C00547EA89073543EB
:102FF00047EA880C24F4E64444EA0E27C3F804C0E8
:103000009F614F6809699F631D629F6947F400676C
:103010009F619F6927F480679F6168E0036842F6BB
:1030200000461A6AC4F2010622F480721A621D6A0E
:103030001A46D3F804C052F81CEFB3428E680C68ED
:1030400025F4007545EA06250FD1CE68D1E905982B
:10305000360240F2FF47BE432CF4405725F440654A
:1030600047EA0917354347EA081C2EF07307274340
:10307000C3F804C0DF614F680969DF631D62DF695F
:1030800047F00807DF61DF6927F00407DF612FE001
:10309000036842F600471A6AC4F2010722F480521C
:1030A0001A621A46D3F820C05D6852F81C4FD1F856
:1030B00000E08E68BB4204D14F6925F4804545EAA3
:1030C00087152CF4005747EA063724F4E64646EA0B
:1030D0000E265D60DE614E6809691E641F62DF694D
:1030E00047F40067DF61DF6927F48067DF61090269
:1030F000136819431160002180F83C100846BDE8B0
:10310000F0830000002804BF0120704710B504467A
:1031100090F83D0028B9002084F83C00204600F0DB
:1031200067F8022084F83D00206840F2FF730268CF
:10313000C4F2000342F6004C9842C4F2010C15DCC4
:10314000B0F1804F1AD040F20041C4F20001884231
:1031500014D0984218DCB0F1804F1DD040F20041ED
:10316000C4F20001884217D01AE000BF604505D0C4
:1031700040F60001C4F200018842EAD1A16822F0C1
:1031800070020A439842E6DD604505D040F6000132
:10319000C4F20001884203D1216922F440720A433B
:1031A000A36922F08001D4F804E0E2681943604585
:1031B0000160C262C0F828E002D16169CCF8301029
:1031C00001214161002084F8461084F83E1084F803
:1031D0003F1084F8401084F8411084F8421084F8BD
:1031E000431084F8441084F8451084F83D1010BD55
:1031F000704700007047000041B1082910D0042931
:1032000014BF00F1410200F13F020BE090F83E20B4
:10321000012A1CBF01207047022280F83E2013E0E3
:1032200000F140021278012A1CBF012070470222DF
:10323000082907D0042914BF80F8412080F83F20D6
:1032400002E000BF80F84020006801F01F01012269
:10325000036A8A4023EA02010162036A42F644419A
:10326000C4F201011A43A1F14403984202620FD053
:1032700040F2FF71C4F20001884213DCB0F1804FCC
:103280001CD040F20041C4F20001884216D01CE07C
:103290000A6842F400420A6040F2FF71C4F2000181
:1032A0008842EBDD42F60041C4F20101884205D0BC
:1032B00040F60001C4F20001884206D1816801F0A5
:1032C0000701062904BF00207047016841F0010191
:1032D0000160002070470000704700007047000048
:1032E0007047000070470000B0B582B00268054624
:1032F0001068D368546900F02F01202903F02001E1
:1033000006D129B1284602B0BDE8B04002F01CBE8B
:103310005FEA007C1EBF04F0010E03F4907414EB0E
:103320000E0455D1296B012905D110F0100118BFE9
:1033300013F0100136D1010622D513F080011FD001
:1033400095F83D00212841D1A868B0F5805F03D1F0
:103350002869002800F0F680286A411C296200785C
:103360005060E88C01380104E8842FD1D06820F047
:103370008000D060D06840F04000D06002B0B0BDA6
:10338000400623D513F0400020D0D068202120F043
:103390004000D060284685F83D1002B0BDE8B0403E
:1033A00000F0E4B90020019010680190506801908D
:1033B00001985069400613D4A88DE98DEB8D002B40
:1033C0001CBF401A5FEA004140F0A48002B0B0BDCB
:1033D000C40718BF13F480732CD1430730D436E0F0
:1033E000A86B01684B689CB2002CEFD0A98D8C4271
:1033F000ECD2EB858369202B17D0D16821F4807142
:10340000D160516921F001015161516921F0400100
:103410005161202185F83E1000212963D16821F0F7
:103420001001D160FDF784F8A98DE88D081A81B2EA
:10343000284682E02B6C43F001032B64430706D53A
:10344000BEF1000F03D02B6C43F002032B64830703
:1034500006D5BEF1000F03D02B6C43F004032B64A0
:10346000BCF1000F06D551EA0E0303D02B6C43F0DC
:1034700008032B642B6C002BA8D010F0200018BF81
:10348000002903D0284602F05FFD2A685069296CA4
:1034900000F0400001F0080140182DD0D06820F461
:1034A0009070D060506920F001005061286B0128B5
:1034B00003D1D06820F01000D060202085F83E00B5
:1034C00000202863506940061ED5506920F0400056
:1034D0005061A86BC0B145F6A161C0F6000141631F
:1034E000FDF74AF800283FF471AFA86B416B02B0BA
:1034F000BDE8B040084700BF2846FFF7F3FE0020B4
:10350000286402B0B0BD00BF284602B0BDE8B0409C
:10351000FFF7E8BED16821F49071D160516921F0C4
:1035200001015161202185F83E1000212963D168F5
:1035300021F0100381B22846D36002B0BDE8B0404C
:10354000FFF7CEBE286A30F8021B6FF35F2151608F
:10355000286206E7002804BF0120704710B5044622
:1035600090F83D0028B9002084F83C00204600F087
:103570005FF8242084F83D002068D4E90212C36873
:1035800023F40053C360036923F440531A430261D8
:10359000D4E904231143C268194341F20C639A43EE
:1035A0001143C1604169A26921F44071114343F69E
:1035B0000002C4F201029042416103D0FEF704FD13
:1035C00002E000BFFEF714FD626819214843910034
:1035D000B0FBF1F048F21F51C5F2EB11A0FB012343
:1035E0005A096FF0630302FB0300322303EB001060
:1035F000A0FB0101F02303EA5113206803EB021240
:10360000C1F3431111448160016921F490410161CA
:10361000416921F02A014161C16841F40051C16052
:1036200000202021206484F83D1084F83E1010BD55
:10363000F0B585B040F600050446C4F20105006807
:1036400005F5405100278842039701D005B0F0BD31
:1036500041F21800C4F20200016801AE41F4804159
:103660000160016801F4804100910099016841F016
:10367000040101600068314600F0040000900098E9
:103680004FF400700190022002900320049028461D
:10369000FDF738F94FF48060CDE90107284631463F
:1036A0000397FDF72FF941F254254420C2F200059B
:1036B000C4F202001021802285E883002846C5E973
:1036C0000327C5E90577EF61FDF77EF8002818BFED
:1036D000FCF728FF25200021002265636C62FEF7BD
:1036E00057FB2520FEF744FB05B0F0BD70470000F6
:1036F00070B5044690F83D00202808D14FF0010530
:1037000091B3134682B394F83C00012802D1022001
:1037100070BD00BF012084F83C00002521202162FB
:10372000A384E384256484F83D002268606B45F639
:10373000197C45F6417E45F6AD66C0F6000CC0F634
:10374000000EC0F600060432C0E90ACEC0E90C65DE
:10375000FDF776F820686FF04001016084F83C5076
:10376000416941F080014161284670BD7047000009
:1037700070470000FEE7000041F29820C2F200000E
:10378000FDF7E2B980B541F29820C2F20000FDF7E2
:1037900081FABDE8804000F089BF000010B581B01B
:1037A00000210091406A40F21001C2F2000190F83D
:1037B0003DC009684BF28952C908C1F2F842A1FB29
:1037C0000212110A232251430091009911B300996A
:1037D000013900910168096889051FD50099C9B1AF
:1037E00000990139009101680968890516D5009989
:1037F00081B10099013900910168096889050DD5E9
:10380000009939B100990139009101680968890569
:10381000DBD403E0016C41F020010164446B4FF004
:10382000000E002C1CBF0021A162816B00291CBF6F
:1038300000228A620268002C136823F480631360FC
:10384000A0F82AE018BFC4F834E000291CBF002308
:103850004B63116821F00101116090F83D1060295F
:103860000CD1202180F83D10002180F83E10016429
:1038700001B0BDE81040FDF763B900BF0CF02801AE
:10388000282911D1116841F001011160116841F43A
:103890008061116000210163282180F83D1001B092
:1038A000BDE81040FDF726BD202180F83D10002125
:1038B00080F83E1001B0BDE81040FDF71BBD0000D0
:1038C00010B5044690F83D1090F83E00B0F110029B
:1038D00018BF0122403818BF0120024208BF222928
:1038E00034D001F0280028283AD100202063282075
:1038F00084F83D0020684168090542D5416821F4FB
:1039000000614160606B90F82110012958D1A06BD3
:1039100043F29D71C0F600014163FCF72DFE0028C3
:1039200061D020684169490606D50069616A08705E
:10393000616A206801316162016821F00101016062
:10394000202084F83D00A06B4BE000BF2068026897
:1039500022F4006202604268120505D50CE000BF47
:1039600020684268120507D4602905D0202184F818
:103970003D10002184F83E100021216341680905B3
:10398000BCD494F83D10602950D1202184F83D101A
:10399000002121644169490606D50069616A087001
:1039A000616A206801316162016821F001010160F2
:1039B0002046FDF7C5F8206C000717D11BE000BFBB
:1039C00043F29D71C0F600014163FCF7D5FD50B193
:1039D0002168606B0A6822F001020A60202184F8E5
:1039E0003D10416B8847206C000704D02068416877
:1039F00021F4E061416094F83D00216C490758BF13
:103A000010BD282810D10020CFF6FF70E062002101
:103A10002020216384F83D00204684F83E10BDE854
:103A20001040FDF725BD00BF10BD00BF416949062C
:103A300005D50069616A0870606A013060622046DD
:103A4000FDF758FC206C0007D0D1D4E7C16A428D45
:103A5000042A07D10168426A4B6823F480634B60F3
:103A6000096911E0428D032A16D1026802295368C0
:103A700023F48063536005D0042903D0116821F436
:103A8000806111601169426A1170416A01314162BD
:103A9000418D013941857047428D022A12D1013989
:103AA0000F2919D8DFE801F0081218121818181891
:103AB000181818181818180801680A6822F4806283
:103AC0000EE000BF0168426ACAE700BF01680A68E9
:103AD00042F4806204E000BF01680A6842F40072A8
:103AE0000A600969426A1170416A02684B1C4362AC
:103AF000438D013B438512694A70416A0268013176
:103B00004162418D01394185516821F44071516014
:103B1000202180F83D1090F83E200021402A80F8B6
:103B20003E1003D10163FDF7A9BC00BF1221016360
:103B3000FDF7A0BC81B090F83D10222972D1418DD3
:103B4000042913D30168426A09691170416A01317D
:103B50004162418D01394185418D032962D100685F
:103B6000416821F4806141605CE000BFC26A022AC2
:103B700058D0012956D80021009140F21001C2F21C
:103B8000000109684BF28952C908C1F2F842A1FB51
:103B90000212110A01EB8101009100990139009193
:103BA0000099002940D001680A6892051AD5009949
:103BB000013900910099B9B301680A68920511D5DD
:103BC000009901390091009971B301680A68920562
:103BD00008D5009901390091009929B301680A6854
:103BE0009205DAD40A6822F480620A604A6822F4F4
:103BF000E0624A600969426A1170416A01314162BA
:103C0000418D01394185202180F83D1090F83E20FA
:103C10000021402A80F83E1022D1016301B0FDF757
:103C20002DBC00BF01B07047016C41F02001016460
:103C30000168426A4B6823F4E0634B6009691170C4
:103C4000416A01314162418D01394185202180F86D
:103C50003D10002180F83E1001B0FDF74BBB00BFC6
:103C60001221016301B0FDF705BC0000C16A90F8A4
:103C70003D20212A18BF7047428D4AB1416A02682F
:103C800011F8013B13614162418D01394185704753
:103C900011F5803F18BF082918D101684A6822F43D
:103CA000E0624A600A6842F400720A600021202241
:103CB000016380F83D2090F83E2080F83E10402AB5
:103CC00008BFFDF7DDBBFDF7D7BB00BF2029E4D05F
:103CD00001684A6822F4E0624A6011210163002110
:103CE00080F83E10202180F83D10FDF7C5BB000094
:103CF00090F83D1090F83EC0C26A038D002B08BFBB
:103D0000212919D0212905D0BCF1400F08BF222953
:103D100000D07047418D69B390F83E10402908BF2C
:103D200000F040B8416A026811F8013B136141623A
:103D3000418D01394185704712F5803F18BF082A2F
:103D40001ED101684A6822F4E0624A600A6842F4BF
:103D500000720A6000212022016380F83D2090F863
:103D60003E2080F83E10402A08BFFDF789BBFDF7D2
:103D700083BB00BF0068416821F4806141607047E7
:103D8000202ADED001684A6822F4E0624A601121EC
:103D90000163002180F83E10202180F83D10FDF7DE
:103DA0006BBB000090F83D10026D5AB1026D012A04
:103DB00014D10168826CD2B20A61016D01310165D2
:103DC000704700BFC26C816C012A17D10268C9B26A
:103DD0001161016D02310165704700BF026D022A59
:103DE00018BF7047222911D101680A6842F4807215
:103DF0000A60016D01310165704700BF0268C1F3BF
:103E000007211161016D0131016512E0428D5AB146
:103E1000212909D1416A026811F8013B136141620D
:103E2000418D013941857047428D002A08BF212903
:103E300000D0704701684A6822F4E0624A600A686C
:103E400042F400720A6000212022016380F83D20C4
:103E500080F83E10FDF714BB2DE9F04383B0044613
:103E6000006899460368904643F4806202600268E5
:103E70000B9D42F48072026042690A9ED2070F468F
:103E80001DD1711C11D0002E00F03681FCF752FEBE
:103E9000401BB04200F2328120684169C907F5D069
:103EA0000DE000BF4169C90709D14169C90706D1C1
:103EB0004169C90704BF41695FEAC171F2D007F0E7
:103EC000FE0707614169890738D44169721C01F412
:103ED000806111D049BB002E00F03A81FCF72AFE28
:103EE000401BB04200F2368120684169890725D421
:103EF00041694905F2D518E0B9B9416989071DD46E
:103F00004169490511D44169890717D441694905B7
:103F10000BD44169890711D44169490505D4416928
:103F200089070BD441694905E7D5016841F400715F
:103F300001606FF48061416104200CE10021029175
:103F4000014651F8142F02924A680292029A0A68B6
:103F5000120620D4002E00F0AB80721C51D10A68EA
:103F6000520500F1AD800A68120614D40A685205A1
:103F700000F1A6800A6812060DD40A68520500F105
:103F80009F800A68120606D40A68520500F19880DC
:103F90000A681206E3D5B9F1010F45D04FEA18219E
:103FA0000161014651F8142F12063DD4002E00F095
:103FB0007F80721C2AD10A68520500F181800A684C
:103FC000120631D40A6852057AD40A6812062BD434
:103FD0000A68520574D40A68120625D40A68520584
:103FE0006ED40A681206E6D51EE000BFFCF7A2FDFB
:103FF000401BB04261D82068014651F8142F1206C8
:10400000C9D408684005F1D55AE000BF08684005EA
:1040100056D4FCF78FFD401BB0424ED820680146B5
:1040200051F8142F1206F1D55FFA88F101610146AB
:1040300051F8142F12061AD4D6B3721C33D10A6861
:1040400052053DD40A68120611D40A68520537D4C5
:104050000A6812060BD40A68520531D40A6812069F
:1040600005D40A6852052BD40A681206E7D5016800
:10407000002241F48071016020464FF00111334667
:10408000009500F007FA002850D02068006844E04E
:10409000FCF750FD401BB0420FD82068014651F894
:1040A000142F1206E3D408684005F1D508E000BFDC
:1040B0000868400504D4FCF73DFD202004E000BF63
:1040C0006FF480600860042000212022216384F8BE
:1040D0003D2084F83E10226C1043206484F83C108C
:1040E000206C042843D12068016841F4007101600C
:1040F000012003B0BDE8F083FCF71CFD0020202167
:10410000206384F83D1084F83E00216C41F02001CA
:104110002164216884F83C000868C00544BF4FF45E
:1041200000702064032003B0BDE8F083206847F0EE
:10413000010101610221C0F20101204632462B46F5
:1041400000F050FA002818BF012003B0BDE8F0834A
:10415000FCF7F0FC202000212022216384F83D2080
:1041600084F83E10226C1043206484F83C10012037
:1041700003B0BDE8F08300002DE9F04381B00446B0
:10418000006890460268099D42F4807202604269AC
:10419000089E9946D2070F461DD1711C11D0002EE2
:1041A00000F0D280FCF7C6FC401BB04200F2CE808B
:1041B00020684169C907F5D00DE000BF4169C90712
:1041C00009D14169C90706D14169C90704BF4169DD
:1041D0005FEAC171F2D007F0FE0101614169890710
:1041E00038D44169721C01F4806111D049BB002EA2
:1041F00000F0E880FCF79EFC401BB04200F2E48037
:1042000020684169890725D441694905F2D518E03C
:10421000B9B9416989071DD44169490511D441697A
:10422000890717D4416949050BD44169890711D41D
:104230004169490505D4416989070BD4416949059C
:10424000E7D5016841F4007101606FF4806141615C
:104250000420BAE000210091014651F8142F009289
:104260004A680092009A0A6812061ED4002E00F0D6
:104270008580721C4DD10A68520500F187800A685A
:10428000120612D40A68520500F180800A681206EC
:104290000BD40A68520579D40A68120605D40A6854
:1042A000520573D40A681206E5D5B9F1010F43D05F
:1042B0004FEA18210161014651F8142F12063BD430
:1042C000002E5BD0721C29D10A6852055ED40A68A0
:1042D000120631D40A68520558D40A6812062BD443
:1042E0000A68520552D40A68120625D40A68520593
:1042F0004CD40A681206E7D51EE000BFFCF71AFC92
:10430000401BB0423FD82068014651F8142F1206D6
:10431000CBD408684005F1D538E000BF08684005F7
:1043200034D4FCF707FC401BB0422CD8206801466F
:1043300051F8142F1206F1D55FFA88F101610020BF
:1043400001B0BDE8F08300BFFCF7F4FB00202021A2
:10435000206384F83D1084F83E00216C41F0200178
:104360002164216884F83C000868C00544BF4FF40C
:1043700000702064032001B0BDE8F08308684005A8
:1043800004D4FCF7D7FB202004E000BF6FF480606A
:104390000860042000212022216384F83D2084F855
:1043A0003E10226C1043206484F83C10206C0428DA
:1043B00017D12068016841F400710160012001B04B
:1043C000BDE8F083FCF7B6FB20200021202221630A
:1043D00084F83D2084F83E10226C1043206484F859
:1043E0003C10012001B0BDE8F083000070B5036807
:1043F000044653F8140F400737D40E46F1B1701C31
:1044000024D100BF1868400532D4186840072CD466
:10441000186840052CD41868400726D41868400551
:1044200026D41868400720D41868400520D418689E
:1044300040074FF0000048BF70BDE3E71868400533
:1044400016D4FCF777FB202016E000BF154600BF0E
:10445000186840050CD4FCF76DFB401BB042F2D845
:10446000236853F8140F4007F2D5002070BD00BF39
:104470006FF480601860042000212022216384F8FA
:104480003D2084F83E10226C10432064012084F803
:104490003C1070BD2DE9F04105461446DDF818804A
:1044A00001F47F002A681E46B0F5803F8FB241D1EB
:1044B00050693840C01BB0FA80F04009A0427BD15F
:1044C000701C2DD0002E7BD0FCF734FBA0EB080035
:1044D000B04277D8286840693840C01BB0FA80F0F5
:1044E0004009A042F0D00020BDE8F081506938407A
:1044F000C01BB0FA80F04009A0425DD1506938403D
:10450000C01BB0FA80F04009A04255D15069384034
:10451000C01BB0FA80F04009A0424FF000005FD10C
:1045200050693840C01BB0FA80F04009A042DDD08D
:1045300042E000BF90693840C01BB0FA80F04009EB
:10454000A04239D1701C1FD0D6B300BFFCF7F2FADD
:10455000A0EB0800B04235D8286880693840C01BFD
:10456000B0FA80F04009A042F0D00020BDE8F08110
:1045700090693840C01BB0FA80F04009A0424FF06B
:10458000000018BFBDE8F08190693840C01BB0FA48
:1045900080F04009A0420FD190693840C01BB0FAAA
:1045A00080F04009A04207D190693840C01BB0FAA2
:1045B00080F04009A042DBD00020BDE8F08100BFC0
:1045C000FCF7B8FA00202021286385F83D1085F813
:1045D0003E00296C41F02001296485F83C0001204F
:1045E000BDE8F081F0B581B0044600681D4643691E
:1045F0008FB203EA0701B94202D1002001B0F0BD39
:1046000041691646013201F480610FD059BB9EB357
:10461000FCF790FA401BB04230D82068416939401D
:10462000B942EAD041694905F2D51CE0D9B94169DE
:104630003940B942E1D04169490514D44169394052
:10464000B942DAD0416949050DD441693940B942CE
:10465000D3D04169490506D441693940B942CCD02B
:1046600041694905E3D5016841F4007101606FF4C7
:1046700080614161042002E0FCF75CFA2020002107
:104680002022216384F83D2084F83E10226C1043E0
:10469000206484F83C10012001B0F0BD40F200110C
:1046A000C2F20001887800228A70704740F2001040
:1046B000C2F20000416891F83D20202A04D102781E
:1046C000012A04BF0222027091F83D10202918BF70
:1046D00070474178012904BF0221417070470000F2
:1046E00040F20011C2F20001C8780022CA7070477F
:1046F0002DE9F04F85B040F20017C2F200070D46D9
:10470000D7E90C120646401A65EB020141F29412F9
:10471000801A71F100001BD378684FF0000B90F8FD
:104720003D10202916D13978A1B9797891B90E2197
:1047300007F14002CDE90021D0213B2201234FF0B7
:10474000010BFDF7BBF887F800B0C7E90C6501E085
:104750004FF0000BD7E90E0143F69822301A65EBB3
:104760000101801A71F1000018D3786890F83D209B
:104770003978202A13D17A788AB981B9072107F1CB
:104780004002CDE900211821032201230124FDF775
:1047900095F80BF1020B7C70C7E90E653978022998
:1047A00008D07878022800F03381584605B0BDE87B
:1047B000F08F00BF97F8401000203870080297F87B
:1047C000411000B2084404F0F3FFD7E903A8D7E989
:1047D0000549CAF8000097F8420097F84310000214
:1047E00000B2084404F0E4FFC8F8000097F8440061
:1047F00097F84510000200B2084404F0D9FF206089
:1048000097F8480097F84910000200B2084404F0F5
:10481000CFFFC9F8000097F84A0097F84B10000244
:1048200000B2084404F0C4FFF969086097F84C002E
:10483000049197F84D10000200B2084404F0B8FF4C
:10484000396A0860DAF800000391002120F0004086
:10485000C4F2FA6104F072FEA0B9D8F80000002199
:1048600020F00040C4F2FA6104F068FE50B92068FC
:10487000002120F00040C4F2FA6104F06DFE00282F
:1048800040F03481BD68287840F004062E70D9F8D5
:104890000000002120F00040C4F2FA6104F04EFE56
:1048A000A8B9049800210068C4F2FA6120F0004021
:1048B00004F044FE58B9039800210068C4F2FA617C
:1048C00020F0004004F048FE002840F0158146F03A
:1048D00002002870DAF8000004F06AFD49F69A1523
:1048E00049F69916C9F69915C4F299062A4633462F
:1048F00004F018F803F028FFCAF80000D8F8000008
:1049000004F056FD2A46334604F00CF84CF6CD422E
:104910004CF6CC43CCF6CC42CBF6CC7303F046FF3E
:1049200045F2EC124EF68533C1F6B862C3F6EF736A
:1049300004F060FA03F008FFC8F80000206804F0F3
:1049400037FD2A46334603F0EDFF49F69913CBF6BF
:10495000E9732A4603F02AFF43F658124BF67663B2
:10496000CCF6B402C3F6EF7304F044FA03F0ECFEA5
:104970002060D9F8000004F01BFD46F26665C4F221
:1049800040054FF066322B4603F0CCFF49F65F023C
:1049900044F68C23C1F24C52CBF6F97303F006FFB8
:1049A00003F0D2FE049CC9F80000206804F000FD6A
:1049B0004FF066322B4603F0B5FF4EF20D024FF674
:1049C000A003C9F22D02CBF6FA7303F0EFFE03F059
:1049D000BBFE2060039C206804F0EAFC4FF06632C6
:1049E0002B4603F09FFF46F6162245F28E33CFF298
:1049F0004D32CBF6D47303F0D9FE03F0A5FE206050
:104A000001200BF1040BB870787802287FF4CDAE4A
:104A100097F8411000207870080297F8401000B213
:104A2000084404F0C5FED7E90946FD6A206097F8FE
:104A3000430097F84210000200B2084404F0B8FEA8
:104A4000306097F8450097F84410000200B208441F
:104A500004F0AEFE286020680021C4F2962104F024
:104A6000D3FC04F0A5FC4EF20D024FF6A003C9F2F0
:104A70002D02C3F6EB7304F0BDF903F065FE206070
:104A8000306804F095FC0023CCF20403002203F00C
:104A90008DFE45F6707245F21913CCF60762C3F627
:104AA000EC7304F0A7F903F04FFE3060286804F0BF
:104AB0007FFC46F20003CCF25C03002203F076FE9A
:104AC00049F60F4243F2B473CAF23322C3F6EC73D1
:104AD00004F090F903F038FE286001200BF1080B78
:104AE000F870584605B0BDE8F08F00BFBD68287863
:104AF00020F00406CAE600BF06F0FD00E9E600006B
:104B00002DE9F04F85B040F20018C2F20008DDF840
:104B10003890DDF850A0C8F804000A201C4615465D
:104B20000E464FF00A0BFBF7D9FE7821D8F80400A7
:104B30008DF80C10012703A9CDE90017D0212322FD
:104B40000123CDF808B0FCF751FF0021D8F804008C
:104B50008DF80D100DF10D01CDE90017D0216B225C
:104B60000123CDF808B0FCF741FF0721D8F8040075
:104B70008DF80E100DF10E01CDE90017D02119228C
:104B80000123CDF808B0FCF731FF1021D8F804005C
:104B90008DF80F100DF10F01CDE90017D0211B2268
:104BA0000123CDF808B0FCF721FF0221D8F804005A
:104BB0008DF8101004A9CDE90017D0213722012368
:104BC000CDF808B0FCF712FFD8F804000DF1110180
:104BD000CDE90017182100220123CDF808B0FCF719
:104BE00051FC0120FBF77AFED8F804000DF1120108
:104BF000CDE9001718210B2201238DF81270CDF892
:104C000008B0FCF7F3FE1621D8F804008DF8131055
:104C10000DF11301CDE9001718210A220123CDF867
:104C200008B0FCF7E3FE0F98C8E902A6C8F81C001C
:104C30001098C8E90454C8F820001198C8F81890D2
:104C4000C8F82400DDE91210C8E90A1005B0BDE873
:104C5000F08F0000FEE70000FEE700007047000054
:104C600041F2EC20C2F20000FDF7C8BB406A00210F
:104C7000C187C186FDF7AABB406A01684A6822F075
:104C800003024A60416D41F010014165012180F845
:104C90005110FDF79BBB0000406AFDF74FBE0000BE
:104CA000B0B582B0446A0546FBF744FF296809683D
:104CB00089062FD4034620686422416821F0200130
:104CC0004160416821F0020141602046802100F0EE
:104CD00027F838B1606D40F020006065606D40F0ED
:104CE00020006065A06838B9002001902068C16884
:104CF00001918068019001980020E086012084F8ED
:104D00005100606D30B1204602B0BDE8B040FDF703
:104D10005DBB00BF204602B0BDE8B040FDF7F8BD66
:104D20002DE9F04182B01E4690460D460446FBF741
:104D300001FF301A00EB0807FBF7FCFE40F2100100
:104D4000C2F200010968C1F3CB31794301912168B6
:104D50008A682A40AA4227D1064618F101001FD0CE
:104D6000FBF7E8FE801BB84222D201980199002887
:104D7000A1F1010101912168896808BF074601EA94
:104D80000500A842ECD00FE088682840A8420BD16B
:104D900088682840A84207D188682840A84203D1E3
:104DA00088682840A842EFD0002002B0BDE8F0811A
:104DB000D4E900014268B1F5827F22F0E00242604E
:104DC0000AD1A168B1F5004F02D0B1F5806F03D1CF
:104DD000016821F040010160A16AB1F5005F07D1CF
:104DE000016821F400510160016841F40051016043
:104DF000012084F85100002084F85000032002B004
:104E0000BDE8F0812DE9F04F85B040F2C41CC2F23C
:104E1000000C9346BCF9022084B2814694428E462F
:104E20000493039115DA0BEB0E00BCF9043081B248
:104E300099420EDA049F204601220123009700F0D8
:104E40007BFC40F2C41CC2F2000CDDF80CE0BCF9A3
:104E50000220A24215DDAEEB0B00BCF9043081B29A
:104E600099420EDA049F204601220123009700F0A8
:104E700063FC40F2C41CC2F2000CDDF80CE0BCF98B
:104E800002200BEB090080B2824213DDBCF9043032
:104E90001FFA8EF199420DDA049F01220123009737
:104EA00000F04AFC40F2C41CC2F2000CDDF80CE039
:104EB000BCF90220A9EB0B0080B2824211DDBCF9E3
:104EC00004201FFA8EF191420BDA049F0122012384
:104ED000009700F031FCDDF80CE040F2C41CC2F297
:104EE000000CBBF1010FC0F2FD800020A0EB4B04D1
:104EF000BCF80200CBF101074FF0010A4FF00008A7
:104F00000BE000BF029C0FFA8AF101F1020A0FFACE
:104F10008BF18845574480F2E58039B2B1F1FF3F0B
:104F20006FEAE13108F1010804F10202C4BF17443D
:104F300014468B4408EB090102948CB202B24D4630
:104F400094420BEB0E0915DABCF904301FFA89F113
:104F500099420FDA049E204601220123009600F0B8
:104F6000EBFB40F2C41CC2F2000CBCF90220DDF8DD
:104F70000CE090B2A5EB08018EB2B24218DDBCF98C
:104F800004301FFA89F19942A94612DA049D30468D
:104F900001220123009500F0CFFB40F2C41CC2F2B5
:104FA000000CBCF90220DDF80CE090B201E000BF7B
:104FB000A946A242AEEB0B0514DDBCF90430A9B240
:104FC00099420FDA2046049C01220123009400F04C
:104FD000B3FB40F2C41CC2F2000CBCF90220DDF8A5
:104FE0000CE090B2B24214DDBCF90430A9B299428F
:104FF0000FDA3046049E01220123009600F09CFB4C
:1050000040F2C41CC2F2000CBCF90220DDF80CE036
:1050100090B20BEB09018CB2A24208EB0E0514DD35
:10502000BCF90430A9B299420FDA049E204601224D
:105030000123009600F080FB40F2C41CC2F2000C79
:10504000BCF90220DDF80CE090B2A9EB0B018EB2A6
:10505000B24214DDBCF90430A9B299420FDA049DC2
:10506000304601220123009500F066FB40F2C41C8B
:10507000C2F2000CBCF90220DDF80CE090B2A242B2
:10508000AEEB080514DDBCF90430A9B299420FDA81
:105090002046049C01220123009400F04DFB40F2C5
:1050A000C41CC2F2000CBCF90220DDF80CE090B286
:1050B000B2427FF727AFBCF90420A9B2029C91420B
:1050C000BFF621AF3046049E01220123009600F076
:1050D00033FB40F2C41CC2F2000CDDF80CE0BCF85B
:1050E000020010E705B0BDE8F08F00002DE9F04F99
:1050F00085B0DDF838A09042ADF81200ADF8101080
:10510000ADF80E20ADF80C300ED1994218DA5A1ACB
:10511000013293B280B289B20122CDF800A000F032
:105120000BFB05B0BDE8F08F994219D1824240F3E4
:10513000BD80121A013292B280B289B2BCE000BFC7
:10514000C91A01311FFA81FC80B299B2012263466B
:10515000CDF800A000F0F0FA05B0BDE8F08F00BF78
:10516000A1EB0305B8BF5D1A871AB8BF171ABD4275
:105170000DDD0DF1120004A900F04AFF0DF10E0043
:1051800003A900F045FFBDF81200BDF80E2011B2D2
:1051900003B28B420DDD0DF112000DF10E0100F096
:1051A00037FF04A803A900F033FFBDF80E20BDF8B7
:1051B0001200BDF91010BDF90C6003B214B2B6EBC9
:1051C00001094FF0FF38C4BF4FF00108A1EB0609F9
:1051D0009C42C0F28180A2EB000B0FFA8BF3BD4220
:1051E0004FEA63044FF000030646CDE9017543DD45
:1051F0001BE000BF8AB281B29BB210460122CDF8FB
:1052000000A000F099FABDF810000136BDF80E209C
:1052100000EB08015C4400233046ADF81010ADF8F7
:10522000126015B237B2AF4232DC4C4424B2002CCB
:1052300003F10103DED4013615B237B2AF42F4DD1B
:1052400026E000BF80B289B29AB20123CDF800A057
:1052500000F072FABDF810000136BDF80E2000EB28
:1052600008015C4400233046ADF81010ADF8126020
:1052700017B235B2BD420BDC04EB09073CB2002C7F
:1052800003F10103DED4013617B235B2BD42F3DDBE
:105290001A04DDE901721FD0BA42A3F1010313DD44
:1052A0008AB281B29BB2104636E700BF801A013045
:1052B00083B290B289B21A460123CDF800A000F063
:1052C0003BFA05B0BDE8F08F80B289B29AB20123F3
:1052D000CDF800A000F030FA05B0BDE8F08F000076
:1052E0002DE9F04F81B00578002D7BD040F6004AC3
:1052F00040F2000441F2EC29C4F2010A471CC2F258
:1053000000044FF00008C2F2000901E0280669D04D
:105310003878013D8DF80300207830B9207820B925
:10532000207810B920780028F6D0504601210022BC
:10533000FBF7FAFB50464FF400610022FBF7F4FB49
:1053400048460DF1030101224FF0FF3384F800803D
:10535000FDF780F901202070504601210122FBF762
:10536000E3FB97F801B002371BF07F062BD000BF9C
:10537000207830B9207820B9207810B9207800281A
:10538000F6D0504601210022FBF7CEFB50464FF4E9
:1053900000610122FBF7C8FB132E4846394632460E
:1053A00084F800800CD84FF0FF33FDF753F901204B
:1053B0002070504601210122FBF7B6FB02E000BF3E
:1053C000FDF734FA37444FFA8BF0B0F1FF3F9DDC24
:1053D00017F8010BFF2808BF4FF4FA70FBF77EFAAD
:1053E00094E700BF01B0BDE8F08F0000F0B583B0D6
:1053F00015460746881A0A441C460E4601B213B2E7
:1054000038463A460094FFF771FE00200090384677
:1054100031462A460323019400F002F803B0F0BDA0
:105420002DE9F04F87B0012A06910590C0F28081E6
:1054300000211098A1EB420A069994460844C2F153
:10544000010503F001080490D80703F0020B45D1D1
:105450000126002706E000BF30B2861C67453544B0
:1054600080F2668128B2B0F1FF3F6FEAD0300AF1D6
:1054700002016044C4BF0D448A460FFA80FC781CC8
:1054800039B28C4507B2E7DDB8F1000F10D00598AE
:105490000699049A3844A1EB0C01624400B2119CB5
:1054A00009B213B2024600946446FFF71FFEA446F9
:1054B000BBF1000FD0D005980699049AC01BA1EB50
:1054C0000C01624400B2119C09B213B2024600946E
:1054D0006446FFF70BFEA446BEE700BFB8F1000F1D
:1054E00062D101260024E046CDF808B007E000BFF5
:1054F00030B2861C3544C1454C4680F2198128B231
:10550000B0F1FF3F6FEAD0300AF102014044C4BF5E
:105510000D448A460FFA80F8601C21B288450FFAC4
:1055200080F914DDBBF1000F11D005980699049A9B
:10553000A0EB0900A1EB0801424400B2119F09B29F
:1055400013B2024600976746FFF7D0FDBC461FFA2C
:105550008CF01FFA88F18142CAD0DDF814B00699A8
:10556000049A0CEB0B00091B22440FB200B2CDF8D9
:105570000CA00FFA82FA119C394602465346009459
:105580006446FFF7B3FDABEB040000B23946119F50
:10559000DDF808B002465346DDF80CA00097FFF78F
:1055A000A5FDC446A4E700BFBBF1000F58D14FF0E2
:1055B000010B0027644608E00FFA8BF000F1020BA4
:1055C0005D44A045474680F2B38028B2B0F1FF3F6A
:1055D0006FEAD0300AF102012044C4BF0D448A466C
:1055E00004B2781C39B28C420FFA80F80FDD0598AE
:1055F0000699049A4044091B224400B2119E09B244
:1056000013B2024600966646FFF770FDB4461FFAD5
:105610008CF0A1B28142CFD0059E0699049A0CEB82
:105620000600C91B3A44CDF80CA00FFA81FA00B26B
:105630000FFA82F9119F514602464B460097674682
:10564000FFF754FDF01B00B2119F5146DDF80CA08E
:1056500002464B460097FFF749FDA446ACE700BF62
:1056600001220024664605E010B2821C1544B145B3
:105670004C465DDA28B2B0F1FF3F6FEAD0300AF154
:1056800002013044C4BF0D448A4606B2601C21B2F8
:105690008E420FFA80F9029224DDDDF814B00699EB
:1056A000049A09EB0B00891B32440FFA81F800B20F
:1056B000CDF80CA00FFA82FA119F414602465346DC
:1056C000CDE9007CFFF712FDABEB090000B2119FA2
:1056D000414602465346DDF80CA00097FFF706FD51
:1056E000DDE901C21FFA8CF0B1B28142BCD0DDF815
:1056F00014B00699049A0CEB0B00091B22440FFA14
:1057000081F800B217B2119C414602463B46009414
:105710006446FFF7EBFCABEB040000B23B46119F85
:10572000414602460097FFF7E1FC029AB4469BE728
:1057300007B0BDE8F08F00002DE9F04F81B040F2D6
:10574000C416C2F20006B6F90270B84203DA002BA2
:1057500018BF002A02D101B0BDE8F08FB6F904608D
:10576000B142F8DA0244A2F1010A1FFA8AF2BA42FF
:1057700001EB03020A9DA2F101039AB2C8BF1FFA0E
:1057800087FAB2424FEA152242EA0522C8BFB3B2F5
:1057900042EA05665A1AAAEB00070132013702FBFA
:1057A00007FC40F20007C2F200071FFA8CF801253F
:1057B0004FF400727C68B8F5806F38BF05EB580273
:1057C000551E032D02F0030E0CD322F0030500BF7B
:1057D00004F11002C4E90066C4E90266043D1446FF
:1057E000F6D11446BEF1000F08D0BEF1010F2660BD
:1057F00004D0BEF1020F666018BFA66040F60049F3
:10580000C0B2C9B25FFA8AF2DBB2C4F20109CCF3CA
:10581000852400F0BDF86CB341F2EC2B4FF0000A88
:10582000C2F2000B002516E0484601210022FBF7DA
:105830007BF948464FF400610122FBF775F95846A1
:1058400031464FF4006287F800A0FCF7EFFF013506
:10585000A8B2A0420ED27E6838780028E4D1387809
:105860000028E1D138780028DED138780028F3D03C
:10587000DAE700BF4FEA4800A0EBC42080B37D68A0
:10588000397831B9397821B9397811B9397800299D
:10589000F6D086B24846012100224FF001080024CC
:1058A000FBF742F948464FF400610122FBF73CF94F
:1058B00041F2EC20132EC2F20000294632463C7021
:1058C0000CD84FF0FF33FCF7C5FE484601210122FA
:1058D00087F80080FBF728F902E000BFFCF7A6FF7D
:1058E000786840F2CC1140F6CC12C2F20001C2F24C
:1058F0000002884218BF0A467A6001B0BDE8F08F06
:1059000080B582B040F2C411C2F200014A888B888F
:10591000844600200021CDF800C0FFF70DFF02B043
:1059200080BD0000B0B540F60045C4F20105044654
:10593000284601210022FBF7F7F828464FF4806142
:105940000022FBF7F1F80520FAF7C8FF28464FF4CC
:1059500080610122FBF7E8F849F66270C0F60000AA
:10596000FFF7BEFC49F69D70C0F60000FFF7B8FCDB
:1059700049F6AA70C0F60000FFF7B2FC28460121E4
:105980000122FBF7D1F82046BDE8B04000F064B931
:105990002DE9F04F83B040F20006984693468946C1
:1059A00005462A20C2F200068DF80900307830B989
:1059B000307820B9307810B930780028F6D040F629
:1059C0000044C4F201042046012100224FF0010AE4
:1059D0000027FBF7A9F820464FF400610022FBF7EF
:1059E000A3F841F2EC20C2F200000DF109010122FE
:1059F0004FF0FF333770FCF72DFE204601210122C6
:105A000086F800A0FBF790F840F2C41AC2F2000A30
:105A10009AF8000002218DF80570002818BF0121B6
:105A200048198DF8060001EB0B008DF807708DF812
:105A3000080000BF307830B9307820B9307810B91C
:105A400030780028F6D020460121002201250027C9
:105A5000FBF76AF820464FF400610122FBF764F877
:105A600041F2EC20C2F200000DF1050104224FF0DA
:105A7000FF333770FCF7EEFD20460121012235701F
:105A8000FBF752F82B208DF80A0000BF307830B9B0
:105A9000307820B9307810B930780028F6D0204618
:105AA0000121002201250027FBF73EF820464FF494
:105AB00000610022FBF738F841F2EC20C2F200004E
:105AC0000DF10A0101224FF0FF333770FCF7C2FDE0
:105AD0002046012101223570FBF726F89AF80100D3
